:100000000C94FF030C9446040C9446040C94460490
:100010000C9446040C9446040C9446040C94460438
:100020000C9446040C9446040C940D320C94E1326A
:100030000C948D2C0C9446040C9446040C944604A9
:100040000C9446040C9446040C9446040C94460408
:100050000C9446040C94E42C0C9446040C94460432
:100060000C9446040C9446040C9446040C944604E8
:100070000C9446040C9446040C9446040C944604D8
:100080000C9446040C9446040C9446040C944604C8
:100090000C9446040C9446040C9446040C944604B8
:1000A0000C9446040C9446040C944604165C1E0002
:1000B0001F0020002100220023002400250026002C
:1000C00027002D002E002A002B0014001A00080023
:1000D000150017001C0018000C00120013002F0060
:1000E00030003100390004001600070009000A0042
:1000F0000B000D000E000F0033003400280000003C
:10010000E10064001D001B0006001900050011003D
:100110001000360037003800E5000151E000E30030
:10012000E2000000000000002C00000000000000C1
:100130000000E600E700E400005C3A003B003C0001
:100140003D003E003F0040004100420043004400AB
:100150004500010001000100010001000100010053
:100160000100010001000100010001000100010087
:100170000100010001000100010001000100010077
:100180000100010001000100010001000100010067
:100190000100010001000100010001000100010057
:1001A0000100010001000100010001000100000048
:1001B000000000000100000000000000000001003D
:1001C0000100010001000100010001000100010027
:1001D0000100010001000100010001000100010017
:1001E0000100010001000100010001000100010007
:1001F00001000100010001000100010001000100F7
:1002000001000100010001000100010001000100E6
:1002100001000100010001000100010001000100D6
:1002200001000100010001000100010001000100C6
:1002300001000100010001000100000000000000B9
:1002400001000000000000000000010001000100AA
:100250000100010001000100010001000100010096
:100260000100010001000100010001000100010086
:100270000100010001000100010001000100010076
:100280000100010001000100010001000100010066
:100290000100010001000100010001000100010056
:1002A0000100010001000100010001000100010046
:1002B0000100010001000100010001000100010036
:1002C000010001000100000000000000010000002A
:1002D000000000000000010001000100000000001B
:1002E000000000002A2B2800000000000000000091
:1002F0000000000000000029000000002C1E342037
:10030000212224342627252E362D3738271E1F205C
:100310002122232425263333362E37381F040506A1
:100320000708090A0B0C0D0E0F10111213141516E5
:100330001718191A1B1C1D2F3130232D35040506E3
:100340000708090A0B0C0D0E0F10111213141516C5
:100350001718191A1B1C1D2F3130354C00000000D6
:10036000000000000000000000000000000000008D
:10037000000000000000000000000000000000007D
:100380007E0F00D4FFFFFFC700000078FD377A58CA
:100390005A000004E6D6B44602002101160000000F
:1003A000742FE5A3E006B801FB5D003D8889C654C3
:1003B00036C3174FE4F36EC8C1D9D4A064EB02086A
:1003C0004F9B694EB94B0A2A6C3EDB2358106F9D38
:1003D000FF3237139D37824DD1B1B1E01CEB4E3C5B
:1003E000EC7CA68F9CC273DCE50BAA82560CA5DEC2
:1003F0009D39E656EA2DA25105E917E5A3BAEFB9F2
:1004000091AC79C889ABA3AD3D1943C7D83C9133B2
:100410003C5BE67EC9A86EE955EE12546DC3DB392C
:1004200011C5B307527BED16209A478C8F2E36C626
:10043000AFA1ED3670B70694992B35B2E19157C450
:10044000C0DB947B3A2326DA2B9CBE84CD86452BD9
:100450000CADF904C034B12CB8BDEB2859705670FE
:10046000C66255E1E19FA57E039585A2D216D04BC9
:1004700018BA2D50D5D591A77DB5773949D987BD03
:10048000B294614389301EF8EC7F95D7D3CD48DB19
:10049000437F60B84FC5645E679DEC37FB6754D2FD
:1004A0006F6F59A6EBCCFCEE45F624D91D4A202FE0
:1004B0005680E489AF97D2ADE5FA70C7E4DD3A948F
:1004C00025069F5299ED878511F265E45D469F40B0
:1004D000444AE3C0BA66B24AA3969996022E91099D
:1004E0000DEB75B457259096453E33DAF66B3FEB2E
:1004F0000C2A62064FC8EEF63972D038FCC5192DA9
:100500006D5B971627882FC1644CD9E50068A862F7
:100510002130EDF36BE813E5B9DFDD72DC50F1D784
:100520005483A93786C5D21D8EE6329DABC4296D92
:10053000D91B3D73E98A2FFBD64179851CE20C93C8
:10054000BB9A5C1A475E04C6EF30951DB37DB91A9D
:10055000705F688F80DA7EE95EFF31D26E17DCBE95
:1005600083D097760FCF5C41CB88415A4C7BAA331E
:10057000E3AE64B791C34DA082447AD800636BB3F5
:100580003820514A0F5F29D8DA3907E99786FB38B6
:100590005660D2FE758BCCD115144B77A8431F0C37
:1005A000A2031345430000000640F7F763BB48D0A1
:1005B00000019704B90D0000A5C6145EB1C467FB25
:1005C000020000000004595A010001005A04000012
:1005D0000200020056040000030001005B0400005A
:1005E000040002004004B221050001005C04000088
:1005F0000600020042040000070002005804000048
:10060000080001005D0400000900020044048D217F
:100610000A00020046048D210B00020048048D21CF
:100620000C0002004A048D210D0002004C048D21B3
:100630000E0002004E048D210F00020050048D2197
:100640001000020052048D211100020054048D217B
:10065000120002005E0400001300020060040000AB
:100660001C037600690061006C003A0066003600E9
:1006700034006300320062003300630000001603A0
:100680006900640062005F007200650062006F0034
:1006900072006E00000012034D00610074007400CF
:1006A00065006C0065006300000004030904090292
:1006B0005B00030100A0FA0904000001030101002E
:1006C0000921110100012240000705810308000AE9
:1006D00009040100020300000009211101000122A8
:1006E0002200070582032000010705030320000103
:1006F0000904020001030000000921110100012288
:1007000081000705840320000A1201000200000096
:1007100008EDFE00000100010203010660FF09610F
:10072000A1010962150026FF0095207508810209C4
:1007300063150026FF00952075089102C005010988
:1007400002A10185020901A1000509190129051568
:10075000002501950575018102950175038101054B
:1007600001093009311581257F9502750881060937
:10077000381581257F950175088106050C0A380218
:100780001581257F950175088106C0C00501098086
:10079000A101850319012AB700150126B7009501AB
:1007A00075108100C0050C0901A101850419012AF9
:1007B000A002150126A002950175108100C0050157
:1007C0000906A101050719E029E71500250195088B
:1007D000750181029501750881010507190029FF3E
:1007E000150026FF009506750881000508190129E6
:1007F00005950575019102950175039101C01124BC
:100800001FBECFEFDAE0DEBFCDBF04B603FE27C0C8
:100810008091730490917404A0917504B091760452
:100820008730904BA740B04BD1F4109273041092D4
:100830007404109275041092760414BE84B7877FF6
:1008400084BF0FB6F894A89580916000886180936A
:100850006000109260000FBEE0E0F8E3099511E03F
:10086000A0E0B1E0E8EFFAE602C005900D92AA3AE6
:10087000B107D9F724E0AAEAB1E001C01D92A3377D
:10088000B207E1F70E9412170C9448350C9400004F
:100890003E9A3F9A08954698089547980895469A33
:1008A0000895479A0895CF93DF93D82F0E94CE06DC
:1008B000C82F882321F0D1FF06C00E944B048C2F43
:1008C000DF91CF9108950E944F04F9CFCF93C82FA5
:1008D0000E94BA06811105C00E9451048C2FCF914D
:1008E00008950E944D04FACF9C013A9521153F418D
:1008F00050F5FC01EE27F170BC0166277270AC0167
:10090000442754709C012227387094FF0EC080E168
:10091000EF2B09F480E0672B09F08062452B09F08A
:100920008064232B89F08068089581E0EF2B09F41F
:1009300080E0672B09F08260452B09F08460232B4F
:1009400019F08860089580E00895CF93DF93EC015B
:100950000E9474049E01205E31092830310510F098
:10096000209739F40E945B088C2FDF91CF910C9473
:1009700050070E946908F8CFCF93DF93EC010E94E3
:10098000E207CE010E9474049E01205E31092830E6
:10099000310510F0CD2B21F4DF91CF910C9462083A
:1009A000DF91CF910C94700881E0089581E0089563
:1009B0000C94D60408950C94DA041F93CF93DF931C
:1009C00000D000D00F92CDB7DEB749835A836B8336
:1009D0003091AC0189819A8131111DC06623B9F033
:1009E0002223A9F00E94580C182F682F89819A8120
:1009F0000E94FB0B69817A81812F0F900F900F90DD
:100A00000F900F90DF91CF911F910C9476200E9450
:100A10002B0C182FEFCF0E94580C69817A81EDCFF3
:100A2000FC01262F86819781009739F440815181FE
:100A30006281738184810C94DD040895CF93DF93E8
:100A4000EC0161E00E941005BE01DF91CF910C9492
:100A5000F626CF93DF93EC0160E00E941005BE0103
:100A6000DF91CF910C94DB04E1E0F0E0DF0102C004
:100A7000AA0FBB1F6A95E2F7BD01DF0102C0AA0FF2
:100A8000BB1F4A95E2F76A2B01C0EE0F2A95EAF7E1
:100A9000962F9823961302C08E2B0895E0958E23EF
:100AA0000895242F462F682F8091CA010E94340593
:100AB0000C94B80B0E9489150E94D0060C94A415C2
:100AC0000E94CD290E94B2260E948B2A0C94A71561
:100AD00008950E948D080E9468052FEF84E39CE032
:100AE000215080409040E1F700C000000C94082D98
:100AF0000F931F93CF93DF93EC018B010E942B295F
:100B0000B801CE010E942C1A882309F448C0B8010C
:100B1000CE010E94D804882309F441C0B801CE0157
:100B20000E9473298823D9F1B801CE010E94EE2AD0
:100B30008823A9F1B801CE010E947023882379F19E
:100B4000B801CE010E94C223882349F1B801CE0129
:100B50000E94E524882319F1F8018281882361F03D
:100B6000CA35FDE5DF0721F170F4C115ECE5DE07BC
:100B7000A1F0CE3DDC45C9F0C801DF91CF911F91B6
:100B80000F910C94D404CB358DE5D807A1F0CC356A
:100B9000DD4591F70E94FA10EFCF0E94690580E0D1
:100BA000DF91CF911F910F9108950E94A212F7CF6C
:100BB0000E940311E1CF0E940611DECFCF93DF9395
:100BC000EC0161E00E941005BE01DF91CF910C9411
:100BD0007805DF92EF92FF920F931F93CF93DF93ED
:100BE000E82FF0E0E452FD4FD490282F269526956B
:100BF000269530E0F901E458FC4F0491877010E02D
:100C0000082E02C0159507950A94E2F70170112786
:100C1000F901E459FC4FE490F12C082E02C0F59440
:100C2000E7940A94E2F791E0E922FF24F901E45AFB
:100C3000FC4FC491D0E002C0D595C7958A95E2F7E4
:100C4000C170DD270115110519F081EE0E945007D2
:100C5000E114F10419F086EE0E9450078D2D0E94D8
:100C60004F08EF2819F086EE0E94E207012B19F0D9
:100C700081EE0E94E207CD2B51F08CE2DF91CF9103
:100C80001F910F91FF90EF90DF900C944F08DF9130
:100C9000CF911F910F91FF90EF90DF900895EF9209
:100CA000FF920F931F93CF93DF93EC01162F0AE06F
:100CB0008881882309F454C0813009F04EC08981AD
:100CC000813099F47E0122E0E20EF11C8A810E94BB
:100CD0004F08E7012196812F815050F3EFE9FFE0A3
:100CE0003197F1F700C00000F7CF823041F47E0168
:100CF00082E0E80EF11C8A810E945007EACF83301F
:100D000041F47E01E2E0EE0EF11C8A810E94E207CE
:100D1000E0CF843011F02196DDCF2A81229690E039
:100D200080E0AE014F5F5F4F2053330B2A30310517
:100D300048F0019778F2EFE9FFE03197F1F700C052
:100D40000000F7CF089FB001099F700D1124C90161
:100D5000860F971F2981EA01E4CF0E94E905BACFE7
:100D6000DF91CF911F910F91FF90EF90089560E078
:100D70000C944F06982F92959F7011F0892F94E054
:100D8000282F2695269511F09E5F822F869509F0D3
:100D90009F5F892F089508950C94CB0681E00895F4
:100DA0000895CF93C82F0E94CC068C2FCF910C941E
:100DB0005304019708F40895EFE9FFE03197F1F744
:100DC00000C00000F6CFCF93DF93CDB7DEB72D97ED
:100DD0000FB6F894DEBF0FBECDBF49875A876B8729
:100DE0007C878D878C859D85892B29F0CA01892375
:100DF0008F3F09F046C08B8581110E942C111D8206
:100E00001E821F82188685E0FE013996DE0111964A
:100E100001900D928A95E1F78091420490914304EC
:100E2000892B61F00E94C710882319F082E00E948C
:100E3000DC110E94A31081110E9466118C819D819A
:100E4000892B99F429813A814B815C816D817E8166
:100E50008F8198850E94EC0F2D960FB6F894DEBF17
:100E60000FBECDBFDF91CF91089589819A818923EB
:100E70008F3F41F3CE0101960E941E058111E2CF02
:100E8000EBCF8091AD019091AE0101969093AE01B0
:100E90008093AD01B0CFFC01808191810C94850CD1
:100EA000CF93C82F882309F48BC08238C1F40E94E5
:100EB000952B81FD85C089E30E948C100E947411DE
:100EC0002FEF81EE94E0215080409040E1F700C088
:100ED000000089E30E949310CF910C947411833821
:100EE000A1F40E94952B80FD6BC083E50E948C10BD
:100EF0000E9474112FEF81EE94E0215080409040C9
:100F0000E1F700C0000083E5E5CF8438A1F40E943A
:100F1000952B82FD55C087E40E948C100E947411AD
:100F20002FEF81EE94E0215080409040E1F700C027
:100F3000000087E4CFCF8CEF8C0F813A90F46C2FB8
:100F400080910001909101010E94F82B882329F0E3
:100F50008C2F0E9493100E9474118C2F0E948C1071
:100F6000BBCF80E28C0F883048F4C77081E001C0AD
:100F7000880FCA95EAF70E940C11AECFEBE5EC0F93
:100F8000E33040F4F0E0EC5AFE4F808190E0CF91E6
:100F90000C94BA2BE8E5EC0FE73150F4F0E0EE0FDB
:100FA000FF1FEA5DFE4F80819181CF910C94D02B81
:100FB000C03F30F08C2F0E94B517CF910C94A01831
:100FC000CF910895882309F452C0823871F40E94A9
:100FD000952B81FF4CC089E30E948C100E947411F4
:100FE00089E30E9493100C947411833859F40E9481
:100FF000952B80FF3CC083E50E948C100E947411E9
:1010000083E5EFCF843859F40E94952B82FF2FC0DF
:1010100087E40E948C100E94741187E4E2CF9CEF59
:10102000980F913AF0F290E2980F983050F4877050
:1010300091E001C0990F8A95EAF7892F0E94121159
:10104000D2CF9BE5980F933020F490E080E00C9491
:10105000BA2B98E5980F973120F490E080E00C943B
:10106000D02B803F20F00E941D180C94A0180895EA
:101070001F93CF93DF93182FEB010E945007209707
:1010800031F4812FDF91CF911F910C94E2078FE90A
:101090009FE00197F1F700C000002197F0CF609129
:1010A000600470916104893321F060915E04709155
:1010B0005F040C943808882321F00E940C110C94D2
:1010C00074110895882321F00E9412110C94741158
:1010D0000895882321F00E941F110C947411089523
:1010E000882321F00E9425110C947411089590E03A
:1010F00080E00E94BA2B90E080E00E94D02B0E94FA
:101100002C110E942F110E9474110E94C7190C9477
:10111000A0180E949A100C9477080E9419110C9440
:101120008908E92FE295EF70E250EE3070F4F0E0BC
:10113000E65BFA4C0C94BB34803F19F020F4883EF7
:1011400020F481E00895843FE1F380E00895883E33
:10115000C0F3813FD1F7F5CF93FB882780F908953D
:10116000FC0186819781009721F00E9499130C94CD
:101170009108808191810E94850CF9CFBF92CF9216
:10118000DF92EF92FF920F931F93CF93DF937C0137
:10119000EB01FC010281158112951F700E94E11084
:1011A000C82E8823A1F0C02E002389F08D2F807FC8
:1011B000803429F080E28C0FC12C883040F082E02E
:1011C0000E94DC110E94E11091E0C82EC926BD2EBC
:1011D000B2942FE0B222FBE0FB15B0F1EB2DF0E072
:1011E000E85AFA4C0C94BB342D2F2F70D22E8D2F31
:1011F000807F19F0D29490EFD9220023A9F0DD204E
:1012000059F080E28C0F883010F0C11109C08D2D8B
:101210000E940C110E9474118C2F0E94500714C060
:101220008D2D0E941F11F6CF8C2F0E94E207DD202A
:1012300059F080E28C0F883010F0C11134C08D2D30
:101240000E9412110E947411EB2DE850FF0B34978D
:1012500020F40E94952B0E94D106CE010E94910895
:101260008111D6C11092AE011092AD01CC2009F4CB
:10127000F0C10E94C31080FDECC1F70112820E94F0
:10128000BD100E94C90BC7010E94510B0E94BD10E6
:10129000DF91CF911F910F91FF90EF90DF90CF9052
:1012A000BF900C94D40B8D2D0E942511CBCF3D2FD8
:1012B0003F70D32E8D2F807F803219F0D29480EF33
:1012C000D822CC23E9F0C13009F455C0002309F439
:1012D0005CC0112391F120E0F701408151816281CE
:1012E000738184810E94DD04B7010E94CF228111A5
:1012F00093CFF701858180FF8FCF8F7085831DC0CD
:101300000023E9F0111106C00E9432118D290E94BC
:101310005B089ACF113031F40E9432118D290E945E
:101320004E1192CF80915C04823070F38113ECCF28
:101330000E9466118D2D0E9438118D2DE8CF11115C
:1013400006C00E9466118D2D0E9462087DCF80919B
:101350005C04113059F4823008F476CF0E940911F0
:101360008D2109F471CF0E944111EBCF823048F3F7
:101370001813E7CF69CF002321F0163008F064CFAF
:10138000DCCF153008F060CFDECF1123E1F2809181
:10139000600490916104C93321F080915E049091C2
:1013A0005F040E94D9068C2F0E94E2074DCF8D2F3B
:1013B00086958695837061F0813009F045CFCE0126
:1013C0009370011102C090E080E00E94D02B3CCFCE
:1013D000CE019370011102C090E080E00E94BA2B10
:1013E00033CF8C2F002339F00E94B5170E94A0182C
:1013F0000E94A01829CF0E941D18FACF8D2F83704C
:1014000081F5011121CF4C2F429546954770440F2D
:10141000440F8C2F8F70042E01C0880F0A94EAF7B6
:101420002C2F2071C4FF07C02FE030E001C0220F35
:101430004A95EAF720959D2F969596959370822B65
:10144000923049F058F4913019F00E94AC0BFCCE68
:101450000E94A70BF9CE0E94B10BF6CE0E94A50BFD
:10146000F3CE8695002311F08D2F8170882309F427
:10147000EBCE4C2F429546954770440F440F8C2F6E
:101480008F70042E01C0880F0A94EAF72C2F207168
:10149000C4FF07C02FE030E001C0220F4A95EAF7F1
:1014A00020959D2F969596959370822B923049F0BA
:1014B00058F4913019F00E94F00BC6CE0E94EB0B4D
:1014C000C3CE0E94F50BC0CE0E94B80BBDCEFD2F3F
:1014D000FF70DF2E002329F08F2F0E94C90B8C2F65
:1014E00016CF8C2F0E9462088D2D0E94D40BACCE9B
:1014F000C23F09F43FC060F4C03F31F1C13F91F1F8
:10150000002309F480C0111187CE8D2F8F712FC059
:10151000C33FA9F1C43FA1F780915C04823008F475
:101520005BC0002309F444C00E94A0100E94121165
:101530000E94C310843069F50E94D3118D2F8F71E2
:101540000E94D40BC12C80CE002341F0153008F04E
:101550007BCE8D2F8F710E94E00B76CE163008F077
:1015600073CEF7CF8D2F8F71002309F4BECF0E9469
:10157000C90B6ACE8D2F8F710023C9F3B6CF00231C
:1015800029F08D2F8F710E94C10B5ECE0E94BE0B81
:101590005BCE80915C041817A8F62D2F2F71D22EE8
:1015A000822F0E94C90B63E08D2D0E94B711CACF14
:1015B0000E94A0100E940C1180915C04181740F04A
:1015C0000E94D3110E94411164E08D2F8F71EDCFE5
:1015D00081E00E94DC11B6CF002359F03D2F3F710E
:1015E000D32E832F0E94C90B63E08D2D0E94B7116B
:1015F0002BCE81E00E94DC11123008F425CE82E06F
:101600000E94DC1121CE1111C2CE8D2F8F716DCFB2
:10161000002319F0111126CE29CE111123CE20E07E
:10162000F701408151816281738184810E94DD04D0
:10163000B7010E94DA22882309F414CE8091AD010B
:101640009091AE01029709F00DCE8C2F0E944F08A9
:1016500009CEDF91CF911F910F91FF90EF90DF9016
:10166000CF90BF9008950F931F93CF93DF93EC011A
:101670008E819F81009779F00E9499138C010E94BE
:10168000FA0B0E94A40BB801CE01DF91CF911F91FC
:101690000F910C94BE08688179818A810E948F0C19
:1016A000EDCFCF93DF93EC018B819C81892B29F0C7
:1016B0008881998189238F3F59F4DF91CF910895D3
:1016C000CE010E94330BCE01DF91CF910C942905FE
:1016D000CE010E94DE058111F3CF0E94E110882324
:1016E00061F38A81882349F382E0DF91CF910C94E2
:1016F000DC11CF93DF9300D000D00F92CDB7DEB7CF
:101700000F900F900F900F900F90DF91CF91089551
:10171000CF93DF93CDB7DEB728970FB6F894DEBF2F
:101720000FBECDBF28960FB6F894DEBF0FBECDBF5B
:10173000DF91CF91089508950C949B0B0E949C0B10
:101740008093CB010C94770808950C949E0B909194
:10175000CB01892B0C949E0B9091CB0189230C9487
:101760009E0B9091CB0189270C949E0B0C946604E0
:101770000E94B60B8093CA010C94770880E00C9409
:10178000B80B91E001C0990F8A95EAF7892F0C9464
:10179000B80B21E030E001C0220F8A95EAF7809172
:1017A000CA01822B0C94B80B21E030E001C0220F5B
:1017B0008A95EAF720958091CA0182230C94B80B90
:1017C00021E030E001C0220F8A95EAF78091CA013A
:1017D00082270C94B80B9091CA01892B0C94B80BFA
:1017E0009091CA0189230C94B80B9091CA01892762
:1017F0000C94B80B08959E3F69F1E82F2EE0929F5C
:10180000E00D11248E2F877041E001C0440F8A95AE
:10181000EAF7E695E695E69583E0E89FF001112466
:10182000E155FE4F30E020E070E05191DF0111976B
:10183000CB01022E02C0969587950A94E2F781703B
:1018400081958527842385278C932F5F3F4F2330F5
:10185000310559F708959E3F49F1E82F2EE0929FF8
:10186000E00D11249E2F9770E695E695E69583E0AE
:10187000E89FF0011124E155FE4F50E040E080E088
:10188000219130E0092E02C0369527950A94E2F79F
:1018900021703327042E01C0220F0A94EAF7822B0D
:1018A0004F5F5F4F4330510559F7089580E0089529
:1018B000CF92DF92FF920F931F93CF93DF936C0130
:1018C0000091CA018091CB01082BC7E0D0E010E065
:1018D000FC2EC8010C2E02C0959587950A94E2F75C
:1018E00080FD0CC02197A0F7F12C8F2DDF91CF91B7
:1018F0001F910F91FF90DF90CF900895B6018C2F2C
:101900000E949114019771F3F0CFCF93DF93EC0114
:101910000E94580CBE01DF91CF910C9491141F933B
:10192000CF93DF93EB019091AC01992331F0CB0180
:10193000DF91CF911F910C94850C882379F0CB0116
:101940000E94580C182F682FCE010E94FB0BBE017D
:10195000812FDF91CF911F910C949114CB010E94A4
:101960002B0C182FF4CFCF93DF93C091CC01809133
:10197000CD018C1303C0DF91CF910895D0E0FE011B
:1019800083E0EE0FFF1F8A95E1F7E253FE4F2081BF
:1019900031814281538164817581868197810E9462
:1019A000880B2196C770E3CF20910E0230910F0271
:1019B0004091100250911102609112027091130235
:1019C00080911402909115020C94880B2091CC0107
:1019D0009091CD01291302C080E0089530E0F90113
:1019E00053E0EE0FFF1F5A95E1F7E253FE4F51818E
:1019F000561306C05081581303C05281541304C0BB
:101A00002F5F3F4F2770E6CF81E00895EF92FF925E
:101A10000F931F93CF93DF9380911302807F31F454
:101A200080911002C091CC01811119C0DF91CF913A
:101A30001F910F91FF90EF90089520911102309126
:101A40001202D0E02115310541F080910E029091F3
:101A50000F02482F49234F3F39F42196C7708091D8
:101A6000CD018C13EACFE2CF8E0143E0000F111FAE
:101A70004A95E1F7F801E253FE4F41814913EDCF5A
:101A800090819813EACF82818111E7CFE380F480BF
:101A9000E21AF30A60E08EE092E00E9410056EE028
:101AA00072E00E94C622E816F906B8F68091130289
:101AB0008F70806180931302F801ED52FE4F808198
:101AC0008F70806180838EE092E00E94510BDF91E5
:101AD000CF911F910F91FF90EF900C94B30C6F92E8
:101AE0007F928F929F92AF92BF92CF92DF92EF92AE
:101AF000FF920F931F93CF93DF93CDB7DEB7659718
:101B00000FB6F894DEBF0FBECDBF8C0185E0F801A3
:101B1000DE01519601900D928A95E1F7D801129657
:101B2000FC9012978EE0882E82E0982E2091110270
:101B3000309112022115310541F080910E029091F1
:101B40000F0289238F3F09F0E9C1F11010C1C801CC
:101B50000E94510B82C060E08EE092E00E9410056E
:101B6000B8010E94CB22811116C2CD2829F0872D01
:101B700086218F3F09F011C180E0B82FB170CB2EC4
:101B800080FF29C04F2D672D862D0E94E60CD82E90
:101B9000811121C0698A7A8A89899A890E94850C73
:101BA000292F22952F70223050F0243078F49F7026
:101BB00051F0F8019581907F31F4ED2C1AC19F709E
:101BC00011F08823D1F3805E8830B8F3C8010E94F9
:101BD000510BDC2CF2CFFF2009F40BC180911302D2
:101BE000816080931302E12C04C1892B49F080911C
:101BF0000E0290910F02282F29232F3F09F00FC1C9
:101C0000C8010E94B008882309F4A1CFFF2009F47D
:101C10009ECF809113028032A0F020910E0230916D
:101C20000F023A8729871B86DD86CC868E878091B6
:101C3000140290911502988B8F87CE0109960E940D
:101C4000510B88E0F801AEE0B2E001900D928A9568
:101C5000E1F70E94060D0E94D40CEE24E394C9C063
:101C6000211112C07C2DDD8ACC8AA3016F2D8D89B4
:101C70000E94790B8EE092E00E94510B88E0F40103
:101C800011928A95E9F7A5C18091110290911202F3
:101C9000892B49F080910E0290910F02282F292361
:101CA0002F3F09F0E4C0C8010E94B008882309F45E
:101CB0004ECFFF2009F44BCF80911302803208F2FF
:101CC00020910E0230910F023A8329831B82DD821C
:101CD000CC828E83809114029091150298878F8315
:101CE000CE010196ACCF60E08EE092E00E9410053C
:101CF0006EE072E00E94C622A816B90650F5EF2CDD
:101D0000FF2009F424CF8091110290911202892BB7
:101D100049F080910E0290910F02282F29232F3F26
:101D200009F0CBC0C8010E94B00881118ACF809110
:101D30001302816080931302C8010E94510B59C0A5
:101D400088E0F801AEE0B2E001900D928A95E1F7EB
:101D500050C07C2DDD8ACC8AA3016F2D8D890E9415
:101D6000790B88E0F40111928A95E9F77DC0C801EA
:101D70000E94B008E82E882309F4E9CE88E0F80133
:101D8000AEE0B2E001900D928A95E1F78EE092E02C
:101D90000E944B070E94060D67C081E08F25EDCEA3
:101DA00081E08F2501C1D80111962C912913E7C03C
:101DB000F80190819813E3C020911402309115022C
:101DC000868197812817390709F0D9C0F110D7C04B
:101DD000809113028F708061809313020E94D40C53
:101DE0008EE092E00E94510B80911302D80115966B
:101DF0008C938E2D65960FB6F894DEBF0FBECDBFC7
:101E0000DF91CF911F910F91FF90EF90DF90CF90D6
:101E1000BF90AF909F908F907F906F900895F80142
:101E200021812913EDCED8019C919813E9CE209100
:101E300014023091150216968D919C9117972817D0
:101E4000390709F0DDCE80911302F110D9CE159635
:101E50008C93C8010E94510B88E0F801AEE0B2E01B
:101E600001900D928A95E1F70E94D40CC2CFD8015F
:101E700011962C91291317CFD8019C91981313CF49
:101E8000209114023091150216968D919C9117970E
:101E90002817390709F007CFF11005CF80911302F9
:101EA00015968C93C8010E94510BEEE0F2E088E099
:101EB000DF011D928A95E9F79CCFF8012181291352
:101EC00031CFF801908198132DCF209114023091D9
:101ED0001502868197812817390709F023CF60E022
:101EE0008EE092E00E941005B8010E94D422811178
:101EF00027CF8091130280FD23CF982F907F09F484
:101F00001FCFD80115968C931597903F09F4A1CF58
:101F1000982F907F905F8F70892B99CF6C9011963E
:101F20007C9011971396CD90DC90E09010025601B2
:101F3000A21AB30AEE2009F4D6CE60E08EE092E059
:101F40000E9410056EE072E00E94C62220911302EA
:101F5000207FA816B90608F083CE809111029091D7
:101F60001202211142CEEF2C892B49F080910E02F2
:101F700090910F02282F29232F3F09F014CF60E002
:101F80008EE092E00E941005B8010E94C622843FB4
:101F9000914008F4E0CDC114D10429F0872D8621A9
:101FA0008F3F09F0FDCE80E080FFDFCD4F2D672D04
:101FB000862D0E94E60C882309F4D7CD8EE092E0AE
:101FC0000E94510B88E0EEE0F2E0DF011D928A955D
:101FD000E9F70E94D40C07CECF93DF93CDB7DEB7DD
:101FE00060970FB6F894DEBF0FBECDBF29873A8742
:101FF0004B875C876D877E878F87988BCE0109968C
:102000000E946F0D8823D1F08C859D85892B39F036
:1020100029853A85822F83238F3F09F074C08091F0
:10202000CC019091CD01891348C060960FB6F89409
:10203000DEBF0FBECDBFDF91CF91089588E0FE01D6
:102040003996DE01119601900D928A95E1F78C8503
:102050009D85892B21F389859A8589238F3FF9F204
:10206000A091CD01B0E0CD01019687709927209114
:10207000CC012817190671F40E948D081092CD0129
:102080001092CC0188E0EEE0F2E0DF011D928A952B
:10209000E9F7C5CF93E0AA0FBB1F9A95E1F7A253CA
:1020A000BE4F98E0FE01319601900D929A95E1F7AE
:1020B0008093CD010E94B30CB2CFB8E08B9FC001DA
:1020C000112482539E4F0E946F0D882309F4ADCFD7
:1020D000E091CC0128E0E29FF0011124E253FE4F91
:1020E000208131814281538164817581868197810C
:1020F0000E94880B8091CC0190E00196877099270F
:102100008093CC018CCF4B855C856D857E858F85DA
:1021100098890E94880B83CF682F8091000190914D
:1021200001010C942E2C682F8091000190910101E7
:102130000C94302C80910001909101010C94322C70
:1021400080911B0208958091420490914304892B51
:1021500089F00E94BD2C2091190230911A02AC0125
:10216000421B530B81E020914204309143044217FB
:10217000530708F480E081700895809118028595D6
:1021800085958595089580911802877008950E941D
:10219000BD2C2091160230911702821B930B2091C7
:1021A0004204309143048217930748F0809118024B
:1021B00082FB882780F991E089278170089580E06B
:1021C000FCCF90911802977081E009F480E00895A7
:1021D0009091F10292FB222720F9281751F080FB01
:1021E00092F99093F1028091F0029091F1020C9497
:1021F0001F1208958091F10282FB882780F991E0F7
:1022000089270C94E81081E00C94E81080E00C948D
:10221000E81080912702089590912702892B8093DE
:102220002702089580959091270298239093270282
:1022300008951092270208958091260208959091A2
:102240002602892B8093260208958095909126027C
:1022500098239093260208951092260208951092D2
:102260002502089580911C02089508950C9435115B
:1022700090911B02981721F080931B020C94361149
:10228000089580911B02882329F010921B0280E0A0
:102290000C943611089508950C944B11CF93C82FC8
:1022A0008091F10282FD10C080911C028C1761F0B8
:1022B0000E94BD2C90931A0280931902C0931C02B5
:1022C0008C2FCF910C944C11CF91089580911C02CA
:1022D000882349F010921C0210921A0210921902DF
:1022E00080E00C944C110895E0910001F0910101FF
:1022F000809127028083E0910001F09101018081AB
:1023000090912602892B8083E0910001F0910101D8
:10231000808190912502892B808380911C028823E3
:10232000E9F08091420490914304892B29F00E94A6
:10233000A31081110E946611E0910001F09101014A
:10234000808190911C02892B808380910001909163
:1023500001010E94E62B81110E946611809100010B
:10236000909101010C94A12B08950C94B4119091BB
:10237000F10292FD16C098E0899F90011124622B12
:10238000609318020E94C90B0E94BD2C9093170203
:1023900080931602809118028595859585950C94F9
:1023A000B5110C94C90B10921802109217021092DA
:1023B000160280E00C94B511909118028095892343
:1023C00080931802282F277039F4282F082E000C2C
:1023D000330B9217130621F49091F10292FF07C07C
:1023E0008595859585950E94D40B0C94D3110895FD
:1023F0006FEF7FEF90E080E00C942A3590E080E072
:102400000E9406358A3E9E4F11F40C94D51980E047
:10241000089582E090E00C94FE3483E090E00C9408
:10242000FE34CF9384E090E00E94FE34C82F82E215
:1024300090E00E94FE34982F8C2FCF910895CF9377
:10244000C92F682F84E090E00E940C356C2F82E247
:1024500090E0CF910C940C35AB01BC018FE090E083
:102460000C941E35AB01BC0183E190E00C941E3549
:1024700060E070E0CB010C94321260E070E0CB01C0
:102480000E942C120C9438126AEE7EEF90E080E0ED
:102490000E942A3560E082E090E00E940C3560E006
:1024A00083E090E00E940C351092CB0160E084E064
:1024B00090E00E940C3560E082E290E00E940C35D2
:1024C00060E085E090E00E940C3560E086E090E0FE
:1024D0000E940C356FEF87E090E00E940C3540E0E1
:1024E00050E0BA0188E090E00E941E3560E08DE087
:1024F00090E00E940C3540E050E0BA0188E190E0A5
:102500000E941E3560E087E190E00E940C3540E0BB
:1025100050E0BA018CE190E00E941E3570E060E06E
:1025200080E290E00E942A3540E050E0BA0188E164
:1025300090E00E941E3580E00E94EE190E94141A5D
:102540000C943D120C944412682F8EE090E00C9491
:102550000C350E94C92C6093370270933802809327
:10256000390290933A02609333027093340280935D
:10257000350290933602089585B7806885BF85B788
:10258000806885BF0895089508950C94C4120E9430
:10259000BC128FE695E10E942C2D0E94931D0E9493
:1025A000D4210E94C3120C94480481E008950C9435
:1025B000D512089508950E94D9120C94DA120E943F
:1025C000B42C0E94231A0E9465160C94C5128F9297
:1025D0009F92AF92BF92CF92DF92EF92FF920F93B2
:1025E0001F93CF93DF93CDB7DEB72A970FB6F8943A
:1025F000DEBF0FBECDBF0E948D1681110E94A912B1
:1026000059E2852E52E0952E10E000E0A02E802F9A
:102610000E94A9156C01F401E190F1904F01E816B8
:10262000F90609F45CC080913B0281FD0E94B2155D
:10263000C7018C259D25B12CEE24E394F12C9C013F
:102640002E213F21232B09F444C00E94D712882356
:10265000A9F0BE82AF82CE20DF2081E0CD2809F430
:1026600080E088870E94BD2C8160782F9A878987B7
:102670004E815F8168858A850E94E306000F111FE5
:10268000F801E75DFD4F80819181E826F926F1820E
:10269000E0820E94BB180E94952B90912802891716
:1026A000A9F10E94952B809328022A960FB6F894E0
:1026B000DEBF0FBECDBFDF91CF911F910F91FF9075
:1026C000EF90DF90CF90BF90AF909F908F900C9441
:1026D000D106B394EE0CFF1CFEE0BF12B0CF0F5F2B
:1026E0001F4F0530110509F091CF8FEF89838A8341
:1026F0001B820E94BD2C8160782F9D838C83498131
:102700005A816B818D810E94E306C3CF2A960FB652
:10271000F894DEBF0FBECDBFDF91CF911F910F9117
:10272000FF90EF90DF90CF90BF90AF909F908F90F1
:102730000895CF93DF930E949514EC01811521E554
:10274000920708F042C0811530E5930708F09DC05C
:10275000883E910530F5803E910508F092C0883A98
:10276000910588F4853A910508F084C0813091057F
:1027700009F487C0009709F484C0049708F081C069
:10278000D0E0C0E07EC08F3B9105D0F7C85AD0E0C2
:10279000CC0FDD1FC95ADE4F0990D881C02DD464FB
:1027A00070C08115904250F4C11581E0D80708F03F
:1027B00068C0C03FD10520F3D06563C0C11590E467
:1027C000D907F0F2DF70D06A5CC0811525E5920769
:1027D00000F5811534E5930708F08BC0811543E5BA
:1027E000940708F073C0C11582E5D80708F469C0E2
:1027F000CE018370992721E030E002C0220F331F01
:102800008A95E2F7C695C69580E2C89FE00111243B
:1028100054C0C11599E5D907A8F4C11528E5D20718
:1028200008F06CC0C11536E5D30708F0A9CF8C2F8E
:102830000E942C15C82FD0E0DC2FCC27CC27DF71CD
:10284000D0621FC0C1154AE5D40708F45CC0CE01B0
:1028500090568115904208F093CF8D2F8F710E9472
:102860002C1590E0982F882788279F719C012C2B8E
:10287000E901E6CFC55AD0E0CB57DE4FC881D0E0A2
:10288000D064CE01DF91CF910895E4E096958795CD
:10289000EA95E1F783702C2F26952695237040E268
:1028A000249F90011124382B8C2F8370C1E0D0E03D
:1028B00002C0CC0FDD1F8A95E2F7C22BD32BDC6858
:1028C000E0CFDC2FCC27C16FD06ADBCF8370992794
:1028D00021E030E002C0220F331F8A95E2F7C6954F
:1028E000C69590E2C99FE0011124C22BD32BDA6870
:1028F000C8CFD82FCC27C46FD06AC3CFDC2FCC274A
:10290000C06FD06ABECF8C2F8F700E942C1534E020
:10291000D695C7953A95E1F7CF709C2FEC01D06919
:10292000B0CF0E9476200C94991382389105B1F1B2
:10293000B0F48133910509F475C048F489329105EA
:1029400009F469C08A32910509F473C0089585338A
:10295000910509F459C08933910501F10895833E29
:102960009105A9F138F4803E9105F9F0823E910578
:1029700049F10895863E9105A9F1873E9105C9F177
:10298000843E910519F52091F10221FF1FC080912D
:10299000F00284FD14C087EE90E008952091F002CB
:1029A0002370A1F080EE90E008952091F00220FDC8
:1029B00047C03091F10230FF09C024FF44C090E0CD
:1029C00080E004C02091F00222FDF7CF089520910D
:1029D000F00222FD3BC03091F10230FDE3CF24FF35
:1029E000F5CFEDCF2091F00223FFF0CF24FDE7CF0C
:1029F000D2CF2091F00223FD2CC03091F10231FFA3
:102A0000EECF84EE90E008952091F00225FFDECF16
:102A100089E290E008952091F00225FFD7CF85E369
:102A200090E008952091F00226FFD0CF8AE290E056
:102A300008952091F00226FFC9CF81E390E0089528
:102A400089E390E0089583EE90E0089582EE90E0AF
:102A5000089586EE90E008959091F00292FF06C0EE
:102A6000282F28712830F9F4877F846093FF06C0EF
:102A7000282F28712831F1F4877E84612091F1029A
:102A800020FF06C0382F38713830D9F4877F816035
:102A900021FF06C0282F28712831D1F4877E81615B
:102AA00094FD877E0895282F24712430F9F68B7FBA
:102AB0008860DCCF282F2471243101F78B7E886158
:102AC000DDCF382F3171313019F78E7F8860E0CF3C
:102AD000282F2171213121F78E7E8861E1CF80E09E
:102AE00008950C94F8110E948D168FE39CE90197CC
:102AF000F1F700C000000E948D1680E00E94A91529
:102B000080FF04C00E9471150C94082D08950C9448
:102B100073150E94FE11811102C00E94A2120E9430
:102B2000091280933B020E9411129093F10280934C
:102B3000F0020E9487150E940D120E94A50B809141
:102B4000CA010C94B60B08950C94A31508950C9427
:102B5000A615E82FF0E0EE0FFF1FE450FD4F808137
:102B600091810895089580EA8A95F1F7089500C04B
:102B700008950C94B315F894E82FE295EF70F0E007
:102B800031A1282F2F7081E090E001C0880F2A9595
:102B9000EAF7982F9095932391A392A1892B82A372
:102BA00078940895CF93DF93C6E9D1E089918F3F60
:102BB00011F00E94BB1581E0CB39D807B9F7C8E8FE
:102BC000D1E089918F3F11F00E94BB1581E0C63999
:102BD000D807B9F7DF91CF910895AF92BF92CF9206
:102BE000DF92EF92FF920F931F93CF93DF938C01AD
:102BF000B62EC62FD0E0CE018A569E4F7C01FC0136
:102C000020812F3F09F453C0F894E22FE295EF7032
:102C1000F0E031A12F7081E090E001C0880F2A958B
:102C2000EAF7932F982B91A392A18095892382A3F1
:102C300078940E94B715E8E8F1E030E020E0D12C6C
:102C4000C12C41E050E081918F3FE1F1A82FA29586
:102C5000AF70B0E090966C9170E08F7002C0759587
:102C600067958A95E2F760FD2DC0CA01022E02C069
:102C7000880F991F0A94E2F7C82AD92A2F5F3F4F7D
:102C80002E30310501F7F70180818F3F11F00E944E
:102C9000BB1561E0C114D10409F460E08B2D0E94E2
:102CA000B915CC0FDD1FC00FD11FD982C882DF91AB
:102CB000CF911F910F91FF90EF90DF90CF90BF9039
:102CC000AF90089590E080E0D7CF0E94D215A2EF98
:102CD000B2E011961C921E92ECEFF2E0118210828B
:102CE00013961C921E9212971382128215961C92B2
:102CF0001E9214971582148217961C921E92169794
:102D00001782168219961C921E92189711861086A9
:102D100085E00E94D8160C945A05FF920F931F93DA
:102D2000CF93DF93CDB7DEB72A970FB6F894DEBF07
:102D30000FBECDBF8E010F5F1F4F8AE0F8011192C9
:102D40008A95E9F7F12C6F2DC8010E94ED15F394D7
:102D5000F5E0FF12F8CF4AE050E0B80182EF92E0D0
:102D60000E94D134FF24F394009709F4F12C892BAD
:102D700041F08AE0F801A2EFB2E001900D928A954D
:102D8000E1F72F2D45E06CEF72E082EF92E00E94B8
:102D9000D9160E9460058F2D2A960FB6F894DEBFD3
:102DA0000FBECDBFDF91CF911F910F91FF9008957E
:102DB0000895FF920F931F93CF93DF93F82E092F5F
:102DC000162FD72FC42F222349F081E080933E0293
:102DD0000E94BD2C90933D0280933C0280913E0264
:102DE0008823A1F080913C0290913D020E94D52C55
:102DF000059760F0EF2DF02FA12FBD2F90E080E020
:102E0000D0E08C179D0744F010923E02DF91CF91E5
:102E10001F910F91FF900895219131912D933D9332
:102E20000196EFCF0E94392C0E94BF2E0E94D82E0F
:102E30000E94EA2E0E94DB12FBCF80914502609136
:102E400048047091490480FF16C020910701269F15
:102E5000C001279F900D1124BC017695679576954A
:102E600067956038710508F043C06115710509F474
:102E700041C0862F089581FF0BC020910701269F36
:102E8000C001279F900D1124BC0176956795E9CF6D
:102E900082FF09C0809107019B01829FB001839F3F
:102EA000700D1124DECF209144022223D1F29091A3
:102EB000060180910701482F50E0291748F0CB0107
:102EC000849FB001859F700D949F700D1124C9CF10
:102ED000289F90011124269FA001279F500D369F07
:102EE000500D1124692F70E0CA010E949334B9CFAC
:102EF0008FE7089581E008958091450280FF0CC01E
:102F00006091030170E075956795759567956115FA
:102F1000710549F1862F089581FF06C06091030174
:102F200070E075956795F3CF6091030182FD0BC04A
:102F3000909143029923A1F06091020180910301D5
:102F4000961738F0682F70E06038710500F38FE74E
:102F50000895899FC001112470E00E94A734F4CF26
:102F600061E070E0D7CF81E00895803F31F40E94A6
:102F70001D178195809349020895813F19F40E949D
:102F80001D17F8CF823F31F40E941D178195809361
:102F900048020895833F19F40E941D17F8CF893F16
:102FA00029F40E947C1780934A0208958A3F21F4F5
:102FB0000E947C178195F7CF8B3F31F40E947C17DC
:102FC000819580934B0208958C3F19F40E947C17E1
:102FD000F8CF843F31F480914702816080934702AB
:102FE0000895853F21F4809147028260F7CF863FA4
:102FF00021F4809147028460F1CF873F21F48091D2
:1030000047028860EBCF883F21F4809147028061BE
:10301000E5CF8D3F31F48091450281608093450278
:1030200008958E3F21F4809145028260F7CF8F3F53
:10303000B9F7809145028460F1CF90914802803FBA
:1030400059F48091490287FF0DC0109249029111F5
:103050000BC01092440208C0813F81F48091490264
:1030600018169CF3992381F080914A0290914B02AB
:10307000892B09F064C0109243020895823F49F4FD
:1030800097FFF0CF10924802809149028111ECCF56
:10309000E0CF833F19F41916ACF3E4CF20914A0234
:1030A000893F29F41216F4F610924A02DBCF8A3FC8
:1030B00019F427FFD7CFF8CF20914B028B3F29F48B
:1030C00027FFD0CF10924B02CDCF8C3F19F41216B0
:1030D000CCF3C8CF843F31F4809147028E7F809338
:1030E0004702C0CF853F21F4809147028D7FF7CF03
:1030F000863F21F4809147028B7FF1CF873F21F4F7
:1031000080914702877FEBCF883F21F4809147026F
:103110008F7EE5CF8D3F31F4809145028E7F809385
:103120004502A0CF8E3F21F4809145028D7FF7CFDD
:103130008F3F09F097CF809145028B7FF0CF0895A4
:103140000E94BD2C9C019091480280914902982BCD
:1031500021F0309342022093410290914A028091E3
:103160004B02982B21F03093400220933F0286E4DB
:1031700092E00C94AC2BEF92FF920F931F93CF939E
:10318000DF9300D000D000D0CDB7DEB786E0E6E414
:10319000F2E0DE01119601900D928A95E1F7E09040
:1031A0004802F090490200914A0210914B0210929D
:1031B00048021092490210924A0210924B028E2D40
:1031C0008F2991F080914102909142020E94D52C6A
:1031D000AC0190914402992309F43FC08091080109
:1031E0008417150608F447C0802F812B91F0809139
:1031F0003F02909140020E94D52CAC019091430275
:10320000992309F477C0809104018417150608F406
:103210007FC08091480290914902892B90914A0287
:10322000892B90914B02892B11F00E94A01886E007
:10323000FE013196A6E4B2E001900D928A95E1F785
:1032400026960FB6F894DEBF0FBECDBFDF91CF91AB
:103250001F910F91FF90EF900895209109018AE04E
:10326000289F900111242417350708F0BDCF9F5FD8
:103270009093440202C09F3FD1F7EE2059F00E9484
:103280001D179FEF1E140CF491E0899F802D1124CF
:1032900080934802FF2059F00E941D179FEF1F14D2
:1032A0000CF491E0899F802D112480934902309184
:1032B0004802332309F498CF20914902222309F4CC
:1032C00093CF45EB3403C0011124992359F0909317
:1032D000480245EB240390011124332339F0309345
:1032E000490282CF81E080934802F3CF81E080934E
:1032F00049027ACF209105018AE0289F900111248C
:103300002417350708F085CF9F5F9093430202C0D2
:103310009F3FD1F7002359F00E947C179FEF1016B2
:103320000CF491E0899F802D112480934A0211238F
:1033300059F00E947C179FEF11160CF491E0899FC1
:10334000802D112480934B0230914A02332309F4DB
:1033500060CF20914B02222309F45BCF45EB34036D
:10336000C0011124992359F090934A0245EB24039C
:1033700090011124332339F030934B024ACF81E07E
:1033800080934A02F3CF81E080934B0242CF86E0E4
:10339000E6E4F2E0DF011D928A95E9F7109244021B
:1033A0001092430210924502089583E290E00E9439
:1033B000FE34883A89F484E290E00E94FE34803C36
:1033C00059F485E290E00E94FE3491E0853F09F0D7
:1033D00090E0892F8170089580E0FCCFCF93C82FB3
:1033E0006FEF811168EA83E290E00E940C356FEF85
:1033F000C11160EC84E290E00E940C356FEFC111C6
:1034000065EF85E290E0CF910C940C35089586E24B
:1034100090E00E94FE34682F70E090E080E0089514
:1034200086E290E00C940C3580E00E94EE1960E09A
:1034300070E0CB010E94101A0E94971F0E94E720A3
:1034400081E00C94EE190E94061A0E94D519811190
:1034500002C00C94141A0895CF93FB01C281CC23AF
:1034600009F19C0122513F452031310520F582515F
:103470000E94F720C0E08C2FCF91089581E00E9438
:10348000C90B43E062E081E00E945105F3CF81E087
:103490000E94D40B43E062E081E00E945105EBCF33
:1034A00082E0F6CF8031FFE59F0789F381319F45A8
:1034B000B9F3C1E0E0CF8031EFE59E07F9F2813149
:1034C0009F45C9F682E0DBCF2FEFFC0120830895F2
:1034D000EF92FF920F931F93CF93DF93EC01062F90
:1034E00088812091600230916102232B79F08E3F18
:1034F00009F057C08981833020F08550833008F06F
:1035000050C0602FCE010E94971D4BC08C3009F433
:10351000A1C0D0F4843009F484C060F4823009F48E
:103520004AC008F071C08130C9F1602FCE010E94FD
:10353000641A37C0863009F48AC008F47DC08A3026
:10354000A0F78FEF88832DC0803109F4A0C0D8F494
:103550008E3009F48BC008F481C080910A019091EB
:103560000B01892BF1F06B8170E06D317105C8F4AE
:1035700089819A81AE014C5F5F4F982789279827F0
:103580000E94BD200EC0823109F487C008F482C0B9
:10359000833109F493C08E3F41F6B3CF198289E09D
:1035A0008A83602FCE01DF91CF911F910F91FF9001
:1035B000EF900C94B42D8981823071F0833079F0D2
:1035C000813009F0B2CF0E94C92C0E94C1346A83B5
:1035D0007B838C839D83E5CF0E94071AF6CF809171
:1035E0000A0190910B01892BE1F27E0110E0812FFD
:1035F0000E94A915F701928383831F5FF2E0EF0E0B
:10360000F11C1530A1F7CDCF8981823009F08DCF23
:103610006A817B818C819D810E94C1340E94101A35
:10362000C0CF4B816A8189810E94EC1E982789272F
:1036300098279D838C83B5CF2C813D81322723270A
:1036400032274B816A8189810E940E1FAACF0E9476
:10365000971FA7CF0E9492208983A3CF0E94942016
:103660009827892798279A8389839BCF6B8170E05D
:103670006D31710508F095CF89819A81AE014C5F5B
:103680005F4F9827892798270E9497208ACF0E940A
:10369000E72087CF0E94DA1EDFCF6B8170E06D31AB
:1036A000710508F07ECF89819A81AE014C5F5F4F32
:1036B0009827892798270E941C2073CF6B8170E080
:1036C0006D31710508F06DCF89819A81AE014C5F33
:1036D0005F4F9827892798270E94422062CF8F92B8
:1036E0009F92AF92BF92CF92DF92EF92FF920F9391
:1036F0001F93CF93DF93CDB7DEB72A970FB6F89419
:10370000DEBF0FBECDBF06E013E0F12CE12C8DEE45
:10371000C82E8CE1D82E97E1A92E9DE1B92E24EF79
:10372000822E2BE1922EF801D182C082B382A28236
:1037300095828482F58AE48ABE016F5F7F4F8E2D69
:103740000E94471F892B29F489859A85F801938B5C
:10375000828BFFEFEF1AFF0A0A5E1F4F88E0E81620
:10376000F10409F72A960FB6F894DEBF0FBECDBF5D
:10377000DF91CF911F910F91FF90EF90DF90CF904D
:10378000BF90AF909F908F900895CF93DF9300D01C
:1037900000D00F92CDB7DEB790933F0480933E04E4
:1037A000811520E2920748F40F900F900F900F9030
:1037B0000F90DF91CF910C94BC048EEF89838A83A4
:1037C0001B820E94BD2C8160782F9D838C83498150
:1037D0005A816B818D810F900F900F900F900F90F9
:1037E000DF91CF910C94E3060F931F93CF93DF9358
:1037F0008C01EB016CE472E08C2F0E94471F892B37
:10380000A1F480915E0490915F04019798F4DD2704
:10381000CA5ADD4F8881F80110821882833041F145
:1038200080F4813091F08230B9F0DF91CF911F9117
:103830000F910895EFE9FFE03197F1F700C0000024
:10384000E4CF8430D1F0853081F780914C029091A3
:103850004D02009751F306C080914E0290914F02A5
:10386000009799F3DF91CF911F910F910C94C51B95
:103870008091500290915102F3CF80915202909129
:103880005302009779F720914C0230914D028091BC
:103890004E0290914F0221153105D9F2009711F790
:1038A000C901E0CFCF93DF9300D000D00F92CDB706
:1038B000DEB790933F0480933E04811520E2920787
:1038C00048F40F900F900F900F900F90DF91CF91D1
:1038D0000C94A5048EEF89838A8381E08B830E94F8
:1038E000BD2C8160782F9D838C8349815A816B81A7
:1038F0008D810F900F900F900F900F90DF91CF91CF
:103900000C94E306CF92DF92EF92FF921F93CF9336
:10391000DF93CDB7DEB72A970FB6F894DEBF0FBEA0
:10392000CDBFEEEEF3E080E5DF011D928A95E9F769
:10393000E6EBF3E088E3DF011D928A95E9F78EEE6E
:10394000C82E83E0D82E7F0110E0F701D182C0821B
:10395000BE016F5F7F4F812F0E946F1F892B79F40B
:1039600088E0FE013196D60101900D928A95E1F72B
:1039700089859A85D70113969C938E931297BAE006
:10398000CB0ED11CE7E0EE0EF11C1F5F1830E9F6FC
:103990002A960FB6F894DEBF0FBECDBFDF91CF9150
:1039A0001F91FF90EF90DF90CF900895CF93DF931A
:1039B000EC010E94521C80915E0490915F0401977B
:1039C00028F4CE01DF91CF910C94C51BEFE9FFE005
:1039D0003197F1F700C00000F2CF0F931F93CF9300
:1039E000DF938C01862F6CE472E00E94471F892BC5
:1039F000C9F4C0914C02D0914D02209799F0F80182
:103A00008081833069F4CE010E94D61CCE010E94D1
:103A1000D61CCE01DF91CF911F910F910C94D61C33
:103A20008430B8F7DF91CF911F910F9108950F93D4
:103A30001F93CF93DF938C01EB016CE472E08C2F2A
:103A40000E94471F892B09F064C0FE01FF27D8019F
:103A50008C91EA5AFD4F8130D9F419969C911997AF
:103A6000992311F080830CC01A969C919923D1F36D
:103A700082E0808380914E0290914F020097D9F4AA
:103A800080914C0290914D02009709F442C013C0FE
:103A90008230E9F519968C91199781112DC01A96EB
:103AA0008C9181110EC083E08083809150029091AF
:103AB0005102009719F1DF91CF911F910F910C9452
:103AC000521C84E0808380915202909153020097AF
:103AD00091F780914C0290914D020097F9F00E946D
:103AE000D61C80914E0290914F02009721F7809151
:103AF0004C0290914D02DFCF85E0808380914C0293
:103B000090914D02009729F00E94D61CF0CF86E0DC
:103B10008083DF91CF911F910F91089580914E0284
:103B200090914F02B1CF0E946F1B0C94821CCF92D8
:103B3000DF92FF920F931F93CF93DF93CDB7DEB742
:103B40002A970FB6F894DEBF0FBECDBF8C0160324E
:103B500069F5DC011196EC911197EE3038F5F0E043
:103B6000EC59FA4C0C94BB3488E0EEE1F1E0DE0154
:103B7000119601900D928A95E1F780E2F801119279
:103B80008A95E9F784E0D8018C9311961C921197DD
:103B900012961C92129713961C92139788E0FE01BE
:103BA0003196149601900D928A95E1F72A960FB6F8
:103BB000F894DEBF0FBECDBFDF91CF911F910F9163
:103BC000FF90DF90CF9008958CE3F801808382E02E
:103BD000818312821382EACF13968C911397682FF8
:103BE00070E0762F662712968C91860F972F911D85
:103BF000092E000CAA0BBB0B45E0880F991FAA1FCA
:103C0000BB1F4A95D1F7AC01BD01405E5F4F6F4FBE
:103C10007F4F481759076A077B0740F28C33E2E071
:103C20009E07A105B10510F64D33F2E05F0761056F
:103C3000710520F04CE352E060E070E0481B590B46
:103C4000BC0164577C4FC8010E94C834AFCF40E22A
:103C500050E06FEF70E00E94E73480910A01D801D4
:103C60008C938091600211968C93A0CF81E090E0BC
:103C7000909361028093600282E390E090935F02F0
:103C800080935E020E94BD2C91CF80910A01F801C1
:103C9000808380916002818380915E02828386CFDF
:103CA00040E250E0BC0112968D919C910E943A2214
:103CB0007DCFBC016F5F7F4F4FE150E0FC018281FF
:103CC00093810E946C22D8018C9370CFBC016C5FF1
:103CD0007F4F4CE150E0FC01828193810E9494224D
:103CE000F2CF0E94F92162CFFC0182818230F1F192
:103CF000E0F4882399F1813009F058CF13968C9124
:103D00002AE0F22EFE0131966F01DF01EF2D1D92A8
:103D1000EA95E9F7B6010E94471FD8018D93F60195
:103D200001900D92FA94E1F741CF833099F18430FC
:103D300009F03CCF13968C919AE03496DE011196EF
:103D400001900D929A95E1F7BE016F5F7F4F0E943F
:103D5000831FF80180830E94821C28CF80E21D927D
:103D60008A95E9F788E08083818320CF13968C9130
:103D70009AE03496DE01119601900D929A95E1F742
:103D8000BE016F5F7F4F0E945B1FF80180830E941E
:103D90006F1B0CCF13968C919AE0F92EFE01319691
:103DA0006F01DF01EF2D1D92EA95E9F7B6010E9440
:103DB0006F1FB3CF84E0089550E0440F551F9CE17E
:103DC000699F400D511D11249CE8899F400D511D94
:103DD0001124CA01879608950F931F93CF93DF9301
:103DE0008430C8F46530B8F44E30A8F40E94DC1E6C
:103DF0008C010E94FE34C82FD0E0DC2FCC27C801F4
:103E000001960E94FE349E01282BC901DF91CF91BB
:103E10001F910F91089590E080E0F8CF0F931F93CA
:103E2000CF93DF93E9018430E0F46530D0F44E3075
:103E3000C0F421153C4531F420910A0130910B0169
:103E4000232B79F00E94DC1E8C016D2F0E940C3513
:103E50006C2FC8010196DF91CF911F910F910C94A7
:103E60000C35DF91CF911F910F910895823291050A
:103E700020F4895A9D4F0C94FE3480E008958232DC
:103E8000910520F4895A9D4F0C940C3508959B019F
:103E9000883070F49AE0899FB001112467587D4FF3
:103EA0004AE050E0C9010E94EE3490E080E00895BD
:103EB0008FEF9FEF08959B01883070F49AE0899FFF
:103EC000B001112467587D4F4AE050E0C9010E94BB
:103ED000303590E080E008958FEF9FEF08959B01CB
:103EE000883070F49AE0899FB001112467537D4FA8
:103EF0004AE050E0C9010E94EE3490E080E008956D
:103F00008FEF9FEF08959B01883070F49AE0899FAE
:103F1000B001112467537D4F4AE050E0C9010E946F
:103F2000303590E080E008958FEF9FEF08957F9205
:103F30008F929F92AF92BF92CF92DF92EF92FF92B9
:103F40000F931F93CF93DF93CDB7DEB764970FB670
:103F5000F894DEBF0FBECDBFA0900A01B0900B0158
:103F600081E090E090930B0180930A018CEAC82EC7
:103F700080E0D82E00E0760110E015C0F401259114
:103F80003491472D612F802F0E940E1F82E0880EF2
:103F9000911C73949EE07912F1CFECE1EE0EF11CCE
:103FA0001F5F153019F04701712CE8CF0F5FFCE857
:103FB000CF0ED11C0430F9F60E94F9211C861B8615
:103FC0001E861D86188A1F861A8A198A88EC90E038
:103FD0009C8B8B8B10E0BE01655F7F4F812F0E9411
:103FE0005B1F1F5F1830B9F7CE0101967C018AE094
:103FF000F70111928A95E9F710E0B701812F0E942D
:10400000831F1F5F1830C9F7B0920B01A0920A01FD
:1040100064960FB6F894DEBF0FBECDBFDF91CF918F
:104020001F910F91FF90EF90DF90CF90BF90AF90D6
:104030009F908F907F900895EF92FF920F931F9320
:10404000CF93DF93EC018A017C01E60EF71ECE01CF
:104050008796CE15DF0539F4DF91CF911F910F912F
:10406000FF90EF900895C03322E0D20740F40E9401
:10407000FE34F80180830F5F1F4F2196E8CFF801CF
:104080001082F9CFCF92DF92EF92FF920F931F939E
:10409000CF93DF938C016A018033924080F480E3F8
:1040A00092E0801B910B8617970748F07801E60E87
:1040B000F71EE801CE018796CE15DF0549F4DF91A2
:1040C000CF911F910F91FF90EF90DF90CF900895C7
:1040D000C03322E0D20740F4FE01E01BF10BEC0DEF
:1040E000FD1D60810E940C352196E4CF462F209162
:1040F000600230916102232B91F47E3F39F46E3FD0
:1041000071F480913E0490913F040895843038F416
:10411000753028F46E3018F4672F0C94EC1E90E084
:1041200080E0089580E1089587EE90E00895EF9291
:10413000FF920F931F93CF93DF93EC018A017C01D1
:10414000E60EF71ECE01875E9C4FCE15DF0539F4D3
:10415000DF91CF911F910F91FF90EF900895C73E8F
:10416000D10540F40E94FE34F80180830F5F1F4F99
:104170002196E8CFF8011082F9CFCF92DF92EF922B
:10418000FF920F931F93CF93DF937C016A018C0101
:10419000060F171FEC01CE01875E9C4FC017D10799
:1041A00049F4DF91CF911F910F91FF90EF90DF9035
:1041B000CF900895C73ED10540F4FE01EE19FF09E6
:1041C000EC0DFD1D60810E940C352196E4CFCF934C
:1041D000DF93C9E1D3E060E0CE010E940C35219667
:1041E000C11584E0D807B9F7DF91CF910895BF9248
:1041F000CF92DF92EF92FF920F931F93CF93DF93B3
:1042000000D000D0CDB7DEB7F82E2FE0281740F051
:104210008FEF93E00E94FE3409E113E08823D1F090
:104220000F900F900F900F90DF91CF911F910F91F2
:10423000FF90EF90DF90CF90BF900895011544E07C
:10424000140771F3C8010E94FE34811101C0FA9471
:104250000F5F1F4FF110F2CF19821A821B821C824E
:10426000BB24BA9478015FEFE51AF50AC8010E94F1
:10427000FE3489831A82882399F2813009F047C07D
:10428000680182E0C80ED11CC7010E94FE34E82EEE
:104290008A83882329F2C6010E94FE34F82E8FEF0C
:1042A0008E0D833068F46801E3E0CE0ED11CFB82F2
:1042B000FF2021F0CE0101960E94B7068601D2CFE1
:1042C000F4E0EF12FBCF680124E0C20ED11CC8015C
:1042D00003960E94FE34FF2009F4A2CF882309F43C
:1042E0009FCF8150990BB89E9001B99E300D11243B
:1042F0004F2D4150550BCA01820F931F0197F0F2C9
:10430000EFE9FFE03197F1F700C00000F7CFCE01F1
:1043100001960E94B7066701D1CFE0E4F4E0848102
:1043200095812AE030E0B9010E949334609309013D
:10433000868180930801828580930701848580931C
:10434000060186859785B9010E9493346093050123
:1043500080898093040182898093030184898093FA
:104360000201089580914004909141040C94C02A68
:104370000F931F93CF93DF9300E414E0D0E0C0E0ED
:10438000CE010E94361FF80161918F01861719F046
:10439000CE010E943F1F2196C232D10589F7DF91DD
:1043A000CF911F910F9108950F931F93CF93DF9398
:1043B00000E414E0D0E0C0E0CE010E94361FF80116
:1043C00081938F012196C232D105B1F7CEECD5E0B1
:1043D000FE0185919491009711F0FC0109952896B2
:1043E000F6E0C636DF07A1F7DF91CF911F910F915D
:1043F0000895E0E4F4E0128E138E8FEA90E091834A
:10440000808385E0848F88E893E1938382834CE204
:1044100051E05583448322E330E03783268385E0EF
:1044200090E0918780878AE090E09387828764E1BB
:1044300070E0758764875787468744E650E0518B64
:10444000408B48E050E0538B428B48E250E0558B64
:10445000448B378B268B28EC30E0318F208F158EE4
:10446000978F868F80E590E091A380A30E94B8216A
:104470000C94D421EF92FF920F931F93CF93DF936D
:104480007C01EB018A016FEF70E0CE010E94E734FE
:1044900028EC35E0A0E6B6E090E080E0AC014E5FAD
:1044A0005F4F0417150788F0F90165917491E616BE
:1044B000F70630F48C0F9D1FFC0171836083CA01E5
:1044C000285F3F4FA217B30749F7DF91CF911F91A4
:1044D0000F91FF90EF900895DC01CB0128EC35E0BF
:1044E000F90165917491A617B70749F0285F3F4F0E
:1044F00066E020363607A1F78FEF9FEF0895B901E8
:104500006E5F7F4FFB01A591B4914A175B07A0F343
:10451000FB0145915491F9013496659174910E9483
:10452000DE3490E080E00895CF93DF93C8ECD5E0CF
:10453000FE01259134918217930741F0289626E0D9
:10454000C036D207A9F78FEF9FEF1DC0CE010296AC
:10455000FC012591349142175307A8F3FC014591C2
:104560005491FE013496859194910E94DE340E940C
:10457000B821FE01369685919491009711F0FC01C7
:10458000099590E080E0DF91CF91089580915804E3
:1045900090915904089580915D04817008958091EF
:1045A0005D0486958170089580915D0482FB882763
:1045B00080F9089580915D0483FB882780F9089530
:1045C00080915604909157040895AF92BF92CF9274
:1045D000DF92EF92FF920F931F93CF93DF937C01B3
:1045E0005B01C42FD22FFC0182818823F9F0409314
:1045F00064020E94BD2C909363028093620280E269
:104600008C0F883008F061C0C77081E001C0880F4E
:10461000CA95EAF7DF91CF911F910F91FF90EF902C
:10462000DF90CF90BF90AF900C945B081091640224
:10463000141340C080916202909163020E94D52CB5
:104640006C01B701C5010E94C622C816D90690F5B3
:10465000C0E2CD0F1D17B9F080E2810F883040F421
:10466000177081E001C0880F1A95EAF70E9462086E
:10467000C83048F481E09D2F977001C0880F9A954B
:10468000EAF70E945B08802F0E944F08C830E8F4C8
:10469000D77081E001C0880FDA95EAF7DF91CF91FA
:1046A0001F910F91FF90EF90DF90CF90BF90AF9050
:1046B0000C94620880E28C0F883038F4C77081E077
:1046C00001C0880FCA95EAF7E9CFDF91CF911F911A
:1046D0000F91FF90EF90DF90CF90BF90AF90089533
:1046E0000F939C01CB01233F4CE5340759F1A8F40B
:1046F000283DFCE53F0701F1293D4CE53407D1F1A8
:10470000273D3C4591F406E221EE41EE67ED7CE564
:104710000E94E52280E00F910895253FFCE53F07C8
:10472000E9F0B0F0263F3C45F9F0FC018281882396
:1047300039F110926402EFCF07E225EE45EE68ED05
:104740007CE5E6CF06E221EE40EE63EF7CE5E0CFCC
:1047500007E225EE44EE64EF7CE5DACF06E221EED7
:1047600042EE65EF7CE5D4CF07E225EE46EE66EF3C
:104770007CE5CECF08E221E045EE69ED7CE5C8CFCF
:1047800081E0C9CFCF93DF93EC01FB0182818823C5
:1047900009F419C1C230FCE5DF07C0F1C6319CE560
:1047A000D90730F09E012A5F3C452930310570F56C
:1047B0000E9411129093F1028093F002C031ECE557
:1047C000DE0709F4CFC008F05BC0C8308CE5D8071D
:1047D00009F4B6C088F5C430ECE5DE0709F4A8C0DA
:1047E000C0F4C2308CE5D80709F49CC08091F00277
:1047F0008260C330DC4509F498C08091F00290914A
:10480000F1020E941F120E948D0880E0DF91CF917B
:1048100008958091F0028061C630ECE5DE0709F46E
:1048200084C08091F0028860C730DC4508F47DC008
:104830008091F002806279C0CC308CE5D80709F411
:1048400089C070F48091F0028C60CA30ECE5DE071C
:1048500009F46BC008F478C08091F0028E7F65C0C7
:10486000CE308CE5D80709F479C08091F0028B7FB7
:10487000CF30DC4508F459C08091F0028F7E55C0DE
:10488000CB3FECE5DE0709F457C030F5C3318CE5CA
:10489000D80709F46FC078F4C131ECE5DE0709F4FC
:1048A00065C0C231DC4509F0A8CF0E948D08809117
:1048B000F0028F773AC0C5318CE5D80709F462C0A1
:1048C00008F476C08091F1028160CA3FDC4509F0AE
:1048D00094CF8093F10291CFCF3FFCE5DF0709F43D
:1048E0004DC088F48091F1028D7FCD3F9CE5D907C2
:1048F00081F38091F1028E7FCE3FDC4550F38091B1
:10490000F1028360E6CFC130FDE5DF0709F459C04D
:1049100008F444C080E0C230DD4509F06ECF0E944B
:10492000A4126BCF8091F00281608093F00265CF7A
:104930008091F0028460F9CF8091F1028260C9CF4A
:104940008091F0028064F1CF0E948D088091F00286
:104950008068EBCF8091F0028D7FE7CF8091F002ED
:10496000877FE3CF8091F0028F7DDFCF8091F002CF
:104970008F7BDBCF8091F002837FD7CF8091F102D4
:104980008C7FA7CF8091F00282FB992790F921E0DC
:10499000922790FB82F990FB83F9C7CF8091F102B7
:1049A000982F909591708E7F892B90FB81F991CFF4
:1049B0000E948D089091F002892F97FB87F980580B
:1049C000B4CF81E0ACCF81E021CFCF93DF93EB0177
:1049D00086319C4509F03BC00E940911982F9A7AB4
:1049E00020915A0420FF04C0382F347409F090E05D
:1049F00021FF04C0382F317109F090E022FF04C07C
:104A0000382F387809F090E023FF03C0827209F054
:104A100090E08A81882389F081E0911101C080E0D3
:104A20008093650289E2911185E30E948C100E94B7
:104A3000741180E0DF91CF9108958091650281111A
:104A400004C089E20E949310F2CF85E3FBCF81E09E
:104A5000F1CF08950F931F93CF93DF938091D102ED
:104A6000E09166021CE081111AC0DF91CF911F9185
:104A70000F91089501E00E0F00936602CE2FD0E053
:104A8000E19FF0011124EF58FD4F83819481892B20
:104A900029F08081918189238F3FE9F4E02F809173
:104AA000D102E81738F31092D10210926602DDCFDE
:104AB00018968D919C918F3F9807D1F061E00E94EC
:104AC00029251C9FF0011D9FF00D1124EF58FD4F6B
:104AD00014821382E3CF1C9FD0011D9FB00D1124BF
:104AE000AF58BD4F16968D919C911797892B01F366
:104AF00020813181428153816481758186819781D2
:104B00000E94EC0FDECF1092D3021092D2022091BD
:104B10000D0130910E01E6EBF3E090E080E0281704
:104B2000390709F408954581411102C014821682A3
:104B300001963796F4CFDC0160916F02809170028C
:104B4000962F891301C00895292F30E0F901EE0F47
:104B5000FF1FE959FD4F408151814A175B07A1F4BE
:104B600087E08A9FA0018B9F500D11244A545C4F0F
:104B700081E0FA0184839613E6CF2F5F3F4F2370C5
:104B8000332720936F0208952F5F3F4F922F93702A
:104B9000D8CF6F927F929F92AF92BF92CF92DF92C7
:104BA000EF92FF920F931F93CF93DF93DB01149645
:104BB0002C911497211169C0A090D102E1E7F2E095
:104BC00030E020E0B12C66246394712C2A1508F0A3
:104BD00047C0C284D384ED90FC9011976FEF7FEFB4
:104BE000912C492D50E08A01000F111F0E0D1F1D41
:104BF000E801088119810115110531F0C016D106AF
:104C000009F4BA019394EDCF6F3F7607D1F1E30138
:104C100002C0CC0FDD1F6A95E2F7BC2AB30102C0C7
:104C2000660F771F9A94E2F7AB0141505109B41611
:104C3000150629F512964D915C9113976CE0629FD1
:104C4000F001639FF00D1124EF58FD4F5783468309
:104C50002EEF208321839187808721E015962C9366
:104C6000DF91CF911F910F91FF90EF90DF90CF9048
:104C7000BF90AF909F907F906F900C949B25148273
:104C800013822F5F3F4F3C96A1CFDF91CF911F91B1
:104C90000F91FF90EF90DF90CF90BF90AF909F90DB
:104CA0007F906F9008951F93CF93DF93C0916F0211
:104CB00017E0809170028C1307C00E942A25DF91B3
:104CC000CF911F910C948325D0E0FE01EE0FFF1FC2
:104CD000E959FD4F80819181189FB001199F700D96
:104CE00011246A547C4F0E94C9252196C370E1CFDC
:104CF0000F931F93CF93DF93DC012D913C9111977C
:104D000040E090E080E0E82FF0E0EE0FFF1FE20FC0
:104D1000F31FC081D1812097B9F0FB01008111817F
:104D200090E005C0CE17DF0709F441E09F5FE92F4F
:104D3000F0E0EE0FFF1FE00FF11F0190F081E02D7A
:104D4000309781F78F5FDFCF442349F0981708F43D
:104D5000DB01CD01DF91CF911F910F910895B0E05C
:104D6000A0E0F7CF80910C01882341F18091D4021B
:104D70009091D502009711F10E94D52C2091D2027A
:104D80003091D30228173907C8F490916F028091AF
:104D90007002981759F00E9453261092D302109275
:104DA000D2021092D5021092D40208950E942A25B0
:104DB0001092D5021092D4020C948325089510927B
:104DC000D5021092D40210920C018091700280934F
:104DD0006F020E9483250C942A2580910C01811179
:104DE0000C94DF2681E080930C0108952F923F926E
:104DF0004F925F926F927F928F929F92AF92BF92EB
:104E0000CF92DF92EF92FF920F931F93CF93DF9396
:104E1000CDB7DEB72A970FB6F894DEBF0FBECDBF71
:104E20006C012B01FB011281873FFCE59F07F9F420
:104E3000112321F181E080930C01812F2A960FB676
:104E4000F894DEBF0FBECDBFDF91CF911F910F91C0
:104E5000FF90EF90DF90CF90BF90AF909F908F909A
:104E60007F906F905F904F903F902F900895883F74
:104E70002CE5920709F04DC0111148C006EB13E074
:104E8000F12CE12C1986AA24A394B12C80910D0158
:104E900090910E01E816F90608F445C0F2018281EE
:104EA000882309F466C1F985FF2309F462C10E94D1
:104EB000BD2C9093D5028093D4028091D10288308A
:104EC00008F591E0980F9093D10298E0F201DE018D
:104ED000119601900D929A95E1F72CE0829FC00106
:104EE00011248F589D4F28E0FE013196DC0101907E
:104EF0000D922A95E1F72FEF3FEFFC0131872087D4
:104F0000D386C28611E0F9851F2797CF0E94DF263E
:104F100094CF893F9C4509F0B1CF112309F4AECF5E
:104F20000E94ED268ACFF8012081318166246A949F
:104F3000762C212C822D90E0FC01EE0FFF1FE20F5A
:104F4000F31F408151814115510531F0C416D5063A
:104F500009F43C012394EECF312CFFEF6F167F064E
:104F600009F448C0F801448130900C01832D4111AF
:104F700080E0F82FF1703F2EF2018281882309F43E
:104F800096C0332009F493C0B801C7010E94E02203
:104F90004C01F8018581811113C0950101C0220FD8
:104FA0006A94EAF78681822B86838091D20290915F
:104FB000D3028815990520F49092D3028092D202F0
:104FC000C50102C0880F991F2A94E2F70197F801E2
:104FD00026812817190671F48091D4029091D50288
:104FE000009789F00E94D52C8816990660F421E07C
:104FF000F8012483F985F329F9872FEFE21AF20AE1
:10500000095F1F4F43CF20906F02309170023A87A3
:1050100090E080E0EA852E1215C08017910751F3C9
:10502000822C912CF401EE0FFF1FE959FD4FF18204
:10503000E082FFEF8F1A9F0A23E082229924809258
:105040007002D8CF822C912CF401EE0FFF1FE9598A
:10505000FD4F2081318147E0429FC001439F900D69
:105060001124FC01EA54FC4F3F01B801CF010E941A
:1050700078260097A9F021E0FC012483801791078E
:1050800009F4B8CF20916F0222120AC0681679067F
:1050900039F494012F5F3F4F2370332720936F0221
:1050A0003FEF831A930A482D4370242EB3CFF801A3
:1050B0009580868190E091101EC0950102C0220F5C
:1050C000331F2A94E2F7215031092817390731F4A8
:1050D000442309F44CC0C7010E949B25C50101C0AF
:1050E000880F6A94EAF7982F9095F80186818923B2
:1050F0008683392C7FCF9C01062C02C035952795DD
:105100000A94E2F7A90141705527BC016150710969
:1051100086239723892B39F5452B29F182819381A9
:10512000892BE1F01B821C821D821E82FEEFF98317
:10513000FA830E94BD2C8160582F9D838C83F801D7
:10514000828193818F83988729813A814B816D81F8
:105150007E810E94EC0FF8011582C0CF60E0C7018C
:105160000E942925F8CFF22FF1709F2EB7CF932CF4
:10517000B5CF90916F0280917002981719F00E943C
:105180005326C0CE0E942A251092D5021092D40236
:105190000E948325B7CECF93DF93EC0181E0898B0A
:1051A0008F810E940C1188850E941F110E9474112A
:1051B000EA81FB81309739F06C897D89CE010696B2
:1051C000DF91CF910994DF91CF910895EF92FF92F3
:1051D0000F931F93CF93DF93EC018A85811134C025
:1051E000EB80FC8087E5F81A26E12E9DC0012F9DFB
:1051F000900D1124DC01AA5FBC4F1496ED91FC9137
:105200001597309731F054966D917C91845F9C4F47
:10521000099586E18E9D80018F9D100D11240A5FF6
:105220001C4FF80187810E941211F80180850E94AD
:1052300025110E947411188219861B861E821D82F8
:105240001092D7021092D602DF91CF911F910F9149
:10525000FF90EF900895DF92EF92FF920F931F93CC
:10526000CF93DF937C01FB018281882391F08091B1
:105270000F018F3F71F0C6E0D3E010E000E0DD24C5
:10528000D39480910F01082E000C990B8017910781
:1052900044F4DF91CF911F910F91FF90EF90DF9039
:1052A00008958E818823D9F089859A858E159F056A
:1052B00039F48091D6029091D7028E159F0579F02E
:1052C000DF86FC86EB868989811103C0CE010E94AE
:1052D000CB28CE0106960E94E6280E942C110F5F73
:1052E0001F4F6696CECFEF92FF920F931F93CF93EF
:1052F000DF937C0197558F3F910509F0D8F52091F8
:105300000F01022E000C330B2817390714F4809379
:105310000F01FB01228136E1389F8001399F100D7A
:105320001124E801CA5FDC4F288B92818E8199237A
:1053300049F1FA86E9868F5F8E830E94BD2C9E8795
:105340008D870E9432118F830E94091188870E94E5
:105350001C119885892B8887E881F981309731F075
:105360006C897D89C801845F9C4F0995F092D702B2
:10537000E092D60281E0DF91CF911F910F91FF90D3
:10538000EF9008958823B1F38989882399F3C801A0
:10539000845F9C4F0E94E628EDCFCF92DF92EF9280
:1053A000FF920F931F93CF93DF9380910F0110E033
:1053B00006E18F3FF1F5DF91CF911F910F91FF90A3
:1053C000EF90DF90CF9008950E9DF0010F9DF00DAE
:1053D0001124EA5FFC4FC288D388C114D10439F488
:1053E00070E060E0818592850E94C6226C010E9D6E
:1053F000E0010F9DD00D1124CA5FDC4F8E81882300
:10540000B9F08D859E850E94D52CC816D90680F4EA
:10541000109F700111248989811105C0C7018A5F1D
:105420009C4F0E94CB28C701845F9C4F0E94E628B6
:105430001F5FE12EF12C80910F01082E000C990BBB
:105440008E159F050CF6B7CFFF920F931F93CF9346
:10545000DF938C01EB01F42E8091100182FF4AC092
:105460008B7F809310018091DA029091DB029B0187
:10547000281B390BC90120911101309112018217AB
:105480009307B8F48091D8020E94500780911001D0
:105490008D7F8093100180915E0490915F0401974D
:1054A00010F58091D8020E94E20782E00E94251147
:1054B0002BC082E00E941F118091D8020E945007E9
:1054C0008091100182608093100180915B0485FFC0
:1054D000E2CF86FDE0CFFF20F1F2DF91CF911F9167
:1054E0000F91FF900895EFE9FFE03197F1F700C0C9
:1054F0000000D5CF802F0E94E2078091D8029091C2
:10550000D9028017910789F20E947411D093DB02AF
:10551000C093DA02E2CF80915B0480FF1DC08091CE
:10552000100182FF19C00E94BD2C2091DA02309137
:10553000DB02AC01421B530B9A01409111015091C7
:1055400012012417350740F041E0BC018091D802D8
:105550009091D9020C94242A089590911001892FDA
:105560008E7F90FF81608093100182E00C94251162
:10557000809110018E7F8093100182E00C942511A0
:10558000909312018093110108958832910538F4A7
:105590008E319105E8F40497A0F480E008958933F2
:1055A000910558F48D32910510F48B97B1F78091E5
:1055B0005B0482FB882780F908C084369105B9F323
:1055C000ECCF80915B048295817091E089270895EA
:1055D00080915B0483FB882780F9F7CFCF92DF921D
:1055E000EF92FF920F931F93CF938C016B018091E9
:1055F0005B0480FD0AC0C1E08C2FCF911F910F91F9
:10560000FF90EF90DF90CF9008950E94BD2C7C0119
:10561000F601C281CC2329F18091100182FF06C0DE
:1056200040E0B70190E080E00E94242A82E00E94DE
:1056300025110B31FCE51F0759F00C314CE514071F
:1056400069F00A315CE5150761F40E94AD2AD4CFF8
:1056500080911001816080931001CECF0E94B82A02
:10566000CBCFB601C8010E94C52A882321F2F601DA
:10567000C281CC2309F44EC08091100180FFBBCFC2
:1056800080915B0481FF15C080915B0485FD16C08D
:105690001093D9020093D802F092DB02E092DA0272
:1056A0008091100184608093100182E00E94DC11DF
:1056B0002FC00E940911882339F39DCF2091DA026F
:1056C0003091DB02A701421B530B9A0186FD04C0F7
:1056D0008091100181FDDCCF283C3105C8F6809116
:1056E000D8029091D9020817190791F680911001FC
:1056F00081FBCC27C0F981FD04C0802F0E94500798
:105700007BCF82E00E941F118091D8020E94500737
:10571000C0E072CF40E0B701C8010E94242A6CCFDC
:105720009093E1028093E0020895E091E002F0910D
:10573000E102309721F00190F081E02D099480E0A2
:105740000895E091E002F091E102309721F00280AB
:10575000F381E02D09940895E091E002F091E102D7
:10576000309739F022E0DC012C930480F581E02DA4
:10577000099408952091DE023091DF02281739073D
:1057800071F09093DF028093DE02E091E002F091ED
:10579000E102309721F00680F781E02D0994089509
:1057A0002091DC023091DD022817390771F09093C7
:1057B000DD028093DC02E091E002F091E10230979B
:1057C00021F00084F185E02D099408959C012E5F5D
:1057D0003F4FAC01485F5F4F80E02417350709F465
:1057E0000895F90191919F019923B9F38F5FF5CF46
:1057F000662349F0FC01329608962191261729F07C
:10580000E817F907D1F780E0089581E008959C0139
:10581000FC0132969FEF80E04191461751F09F3F87
:1058200019F4411101C0982F8F5F8630A9F79F3F6F
:1058300009F40895290F311D97FD3A95F901628306
:105840000895FC01329608962191261303C0DF01CA
:1058500011971C92E817F907B9F708950C94072CD3
:105860000C94212C029626E0FC0111922A95E9F76E
:1058700008950895089508950C943B2C80916A042E
:10588000843049F10E943C2C80E00E94D1061092A5
:10589000E20288E190E020E40FB6F894A8958093A6
:1058A00060000FBE2093600083B7817F846083BF58
:1058B00083B7816083BF7894889583B78E7F83BFD9
:1058C0000FB6F894A895809160008861809360007D
:1058D000109260000FBE08950895CF930E943A2C55
:1058E0000E948D160E946C2CC0E08C2F0E94A9157E
:1058F000892B31F4CF5FC530C1F780E0CF91089597
:1059000081E0FCCF08950C94822C0E948D080E94A7
:10591000952B0E94D1060C94832C1F921FB61F92C8
:1059200011248F939F93AF93BF938091E2028111D3
:1059300013C08091620490916304A0916404B091BB
:1059400065044196A11DB11D809362049093630488
:10595000A0936404B0936504BF91AF919F918F9120
:105960001F901FBE1F90189582E084BD93E095BDE7
:105970009AEF97BD80936E0008952FB7F8948091A9
:10598000620490916304A0916404B09165042FBFF8
:1059900008952FB7F8946091620470916304809128
:1059A0006404909165042FBF08959C014FB7F8944B
:1059B0008091620490916304A0916404B0916504A5
:1059C0004FBF821B930B089578941F921FB61F92AE
:1059D00011248F939F93AF93BF9380916204909112
:1059E0006304A0916404B09165040196A11DB11DEA
:1059F0008093620490936304A0936404B09365045D
:105A0000BF91AF919F918F911F901FBE1F901895CE
:105A100081E08093E00080E28093D8001092C9007A
:105A20008FE19EE40197F1F700C0000087E090EB62
:105A3000DC018093730490937404A0937504B09375
:105A4000760488E19CE00FB6F894A89580936000F6
:105A50000FBE90936000FFCF9093AB018093AA019B
:105A600008958091EE02089590916A04943029F58A
:105A70008093E3027093E5026093E4029093E9005F
:105A80008FEF9091E800815095FD06C095ED9A95B5
:105A9000F1F700008111F5CF8091E80085FF0DC07E
:105AA00050E040E063E070E083EE92E00E94B32FAC
:105AB0008091E8008E778093E8000895BC0184E02F
:105AC0000C94342DBC0183E00C94342D9C0184E0B3
:105AD0008093E9009FEF8091E800915085FD06C01A
